{
  "contractName": "TrustOracle",
  "abi": [
    {
      "inputs": [],
      "stateMutability": "nonpayable",
      "type": "constructor"
    },
    {
      "anonymous": false,
      "inputs": [
        {
          "indexed": true,
          "internalType": "address",
          "name": "user",
          "type": "address"
        },
        {
          "indexed": false,
          "internalType": "uint256",
          "name": "score",
          "type": "uint256"
        }
      ],
      "name": "TrustScoreUpdated",
      "type": "event"
    },
    {
      "anonymous": false,
      "inputs": [
        {
          "indexed": true,
          "internalType": "address",
          "name": "user",
          "type": "address"
        }
      ],
      "name": "UserRegistered",
      "type": "event"
    },
    {
      "inputs": [],
      "name": "owner",
      "outputs": [
        {
          "internalType": "address",
          "name": "",
          "type": "address"
        }
      ],
      "stateMutability": "view",
      "type": "function"
    },
    {
      "inputs": [
        {
          "internalType": "address",
          "name": "",
          "type": "address"
        }
      ],
      "name": "registeredUsers",
      "outputs": [
        {
          "internalType": "bool",
          "name": "",
          "type": "bool"
        }
      ],
      "stateMutability": "view",
      "type": "function"
    },
    {
      "inputs": [
        {
          "internalType": "address",
          "name": "",
          "type": "address"
        }
      ],
      "name": "trustScores",
      "outputs": [
        {
          "internalType": "uint256",
          "name": "",
          "type": "uint256"
        }
      ],
      "stateMutability": "view",
      "type": "function"
    },
    {
      "inputs": [],
      "name": "registerUser",
      "outputs": [],
      "stateMutability": "nonpayable",
      "type": "function"
    },
    {
      "inputs": [
        {
          "internalType": "address",
          "name": "user",
          "type": "address"
        },
        {
          "internalType": "uint256",
          "name": "newScore",
          "type": "uint256"
        }
      ],
      "name": "updateTrustScore",
      "outputs": [],
      "stateMutability": "nonpayable",
      "type": "function"
    },
    {
      "inputs": [
        {
          "internalType": "address",
          "name": "user",
          "type": "address"
        }
      ],
      "name": "getTrustScore",
      "outputs": [
        {
          "internalType": "uint256",
          "name": "",
          "type": "uint256"
        }
      ],
      "stateMutability": "view",
      "type": "function"
    }
  ],
  "bytecode": "0x608060405234801561000f575f80fd5b50335f806101000a81548173ffffffffffffffffffffffffffffffffffffffff021916908373ffffffffffffffffffffffffffffffffffffffff16021790555061093a8061005c5f395ff3fe608060405234801561000f575f80fd5b5060043610610060575f3560e01c80630e50cee51461006457806312df0fc4146100945780634d3820eb146100c45780635e09eea1146100ce5780638da5cb5b146100fe578063ed10bec21461011c575b5f80fd5b61007e6004803603810190610079919061060f565b610138565b60405161008b9190610654565b60405180910390f35b6100ae60048036038101906100a9919061060f565b610155565b6040516100bb9190610685565b60405180910390f35b6100cc61016a565b005b6100e860048036038101906100e3919061060f565b6102d1565b6040516100f59190610685565b60405180910390f35b6101066103a0565b60405161011391906106ad565b60405180910390f35b610136600480360381019061013191906106f0565b6103c3565b005b6002602052805f5260405f205f915054906101000a900460ff1681565b6001602052805f5260405f205f915090505481565b60025f3373ffffffffffffffffffffffffffffffffffffffff1673ffffffffffffffffffffffffffffffffffffffff1681526020019081526020015f205f9054906101000a900460ff16156101f4576040517f08c379a00000000000000000000000000000000000000000000000000000000081526004016101eb90610788565b60405180910390fd5b600160025f3373ffffffffffffffffffffffffffffffffffffffff1673ffffffffffffffffffffffffffffffffffffffff1681526020019081526020015f205f6101000a81548160ff021916908315150217905550603260015f3373ffffffffffffffffffffffffffffffffffffffff1673ffffffffffffffffffffffffffffffffffffffff1681526020019081526020015f20819055503373ffffffffffffffffffffffffffffffffffffffff167f54db7a5cb4735e1aac1f53db512d3390390bb6637bd30ad4bf9fc98667d9b9b960405160405180910390a2565b5f60025f8373ffffffffffffffffffffffffffffffffffffffff1673ffffffffffffffffffffffffffffffffffffffff1681526020019081526020015f205f9054906101000a900460ff1661035b576040517f08c379a0000000000000000000000000000000000000000000000000000000008152600401610352906107f0565b60405180910390fd5b60015f8373ffffffffffffffffffffffffffffffffffffffff1673ffffffffffffffffffffffffffffffffffffffff1681526020019081526020015f20549050919050565b5f8054906101000a900473ffffffffffffffffffffffffffffffffffffffff1681565b5f8054906101000a900473ffffffffffffffffffffffffffffffffffffffff1673ffffffffffffffffffffffffffffffffffffffff163373ffffffffffffffffffffffffffffffffffffffff1614610450576040517f08c379a00000000000000000000000000000000000000000000000000000000081526004016104479061087e565b60405180910390fd5b60025f8373ffffffffffffffffffffffffffffffffffffffff1673ffffffffffffffffffffffffffffffffffffffff1681526020019081526020015f205f9054906101000a900460ff166104d9576040517f08c379a00000000000000000000000000000000000000000000000000000000081526004016104d0906107f0565b60405180910390fd5b606481111561051d576040517f08c379a0000000000000000000000000000000000000000000000000000000008152600401610514906108e6565b60405180910390fd5b8060015f8473ffffffffffffffffffffffffffffffffffffffff1673ffffffffffffffffffffffffffffffffffffffff1681526020019081526020015f20819055508173ffffffffffffffffffffffffffffffffffffffff167f16bf5e9c27e8fb3837dca08521258eaf9f8e21bb809d3dd7a1a4a00093c99a44826040516105a59190610685565b60405180910390a25050565b5f80fd5b5f73ffffffffffffffffffffffffffffffffffffffff82169050919050565b5f6105de826105b5565b9050919050565b6105ee816105d4565b81146105f8575f80fd5b50565b5f81359050610609816105e5565b92915050565b5f60208284031215610624576106236105b1565b5b5f610631848285016105fb565b91505092915050565b5f8115159050919050565b61064e8161063a565b82525050565b5f6020820190506106675f830184610645565b92915050565b5f819050919050565b61067f8161066d565b82525050565b5f6020820190506106985f830184610676565b92915050565b6106a7816105d4565b82525050565b5f6020820190506106c05f83018461069e565b92915050565b6106cf8161066d565b81146106d9575f80fd5b50565b5f813590506106ea816106c6565b92915050565b5f8060408385031215610706576107056105b1565b5b5f610713858286016105fb565b9250506020610724858286016106dc565b9150509250929050565b5f82825260208201905092915050565b7f5573657220616c726561647920726567697374657265640000000000000000005f82015250565b5f61077260178361072e565b915061077d8261073e565b602082019050919050565b5f6020820190508181035f83015261079f81610766565b9050919050565b7f55736572206973206e6f742072656769737465726564000000000000000000005f82015250565b5f6107da60168361072e565b91506107e5826107a6565b602082019050919050565b5f6020820190508181035f830152610807816107ce565b9050919050565b7f4f6e6c7920746865206f776e65722063616e20706572666f726d2074686973205f8201527f616374696f6e0000000000000000000000000000000000000000000000000000602082015250565b5f61086860268361072e565b91506108738261080e565b604082019050919050565b5f6020820190508181035f8301526108958161085c565b9050919050565b7f54727573742073636f72652063616e6e6f7420657863656564203130300000005f82015250565b5f6108d0601d8361072e565b91506108db8261089c565b602082019050919050565b5f6020820190508181035f8301526108fd816108c4565b905091905056fea26469706673582212206fc6200c143b517525c72aa7261a33951ee6f9522cfcd82adb6c08437c46ae0d64736f6c63430008150033",
  "immutableReferences": {},
  "source": "// SPDX-License-Identifier: MIT\npragma solidity ^0.8.19;\n\ncontract TrustOracle {\n    address public owner;\n    mapping(address => uint256) public trustScores;\n    mapping(address => bool) public registeredUsers;\n\n    event TrustScoreUpdated(address indexed user, uint256 score);\n    event UserRegistered(address indexed user);\n\n    modifier onlyOwner() {\n        require(msg.sender == owner, \"Only the owner can perform this action\");\n        _;\n    }\n\n    modifier onlyRegistered() {\n        require(registeredUsers[msg.sender], \"User is not registered\");\n        _;\n    }\n\n    constructor() {\n        owner = msg.sender;\n    }\n\n    function registerUser() external {\n        require(!registeredUsers[msg.sender], \"User already registered\");\n        registeredUsers[msg.sender] = true;\n        trustScores[msg.sender] = 50; // Default trust score\n        emit UserRegistered(msg.sender);\n    }\n\n    function updateTrustScore(address user, uint256 newScore) external onlyOwner {\n        require(registeredUsers[user], \"User is not registered\");\n        require(newScore <= 100, \"Trust score cannot exceed 100\");\n        trustScores[user] = newScore;\n        emit TrustScoreUpdated(user, newScore);\n    }\n\n    function getTrustScore(address user) external view returns (uint256) {\n        require(registeredUsers[user], \"User is not registered\");\n        return trustScores[user];\n    }\n}\n",
  "sourcePath": "/home/adi271001/TrustOracle/contracts/TrustOracle.sol",
  "compiler": {
    "name": "solc",
    "version": "0.8.21+commit.d9974bed.Emscripten.clang"
  },
  "schemaVersion": "3.4.16",
  "updatedAt": "2025-03-01T06:08:09.390Z",
  "devdoc": {
    "kind": "dev",
    "methods": {},
    "version": 1
  },
  "userdoc": {
    "kind": "user",
    "methods": {},
    "version": 1
  }
}